{
  "_format": "hh-sol-artifact-1",
  "contractName": "Waveportal",
  "sourceName": "contracts/Waveportal.sol",
  "abi": [
    {
      "inputs": [],
      "stateMutability": "payable",
      "type": "constructor"
    },
    {
      "anonymous": false,
      "inputs": [
        {
          "indexed": true,
          "internalType": "address",
          "name": "from",
          "type": "address"
        },
        {
          "indexed": false,
          "internalType": "uint256",
          "name": "timestamp",
          "type": "uint256"
        },
        {
          "indexed": false,
          "internalType": "string",
          "name": "message",
          "type": "string"
        }
      ],
      "name": "NewWave",
      "type": "event"
    },
    {
      "inputs": [],
      "name": "getAllWaves",
      "outputs": [
        {
          "components": [
            {
              "internalType": "address",
              "name": "waver",
              "type": "address"
            },
            {
              "internalType": "string",
              "name": "message",
              "type": "string"
            },
            {
              "internalType": "uint256",
              "name": "timestamp",
              "type": "uint256"
            }
          ],
          "internalType": "struct Waveportal.Wave[]",
          "name": "",
          "type": "tuple[]"
        }
      ],
      "stateMutability": "view",
      "type": "function"
    },
    {
      "inputs": [],
      "name": "getTotalWaves",
      "outputs": [
        {
          "internalType": "uint256",
          "name": "",
          "type": "uint256"
        }
      ],
      "stateMutability": "view",
      "type": "function"
    },
    {
      "inputs": [],
      "name": "getWavesBySender",
      "outputs": [
        {
          "internalType": "uint256",
          "name": "",
          "type": "uint256"
        }
      ],
      "stateMutability": "view",
      "type": "function"
    },
    {
      "inputs": [
        {
          "internalType": "address",
          "name": "",
          "type": "address"
        }
      ],
      "name": "lastWavedAt",
      "outputs": [
        {
          "internalType": "uint256",
          "name": "",
          "type": "uint256"
        }
      ],
      "stateMutability": "view",
      "type": "function"
    },
    {
      "inputs": [
        {
          "internalType": "string",
          "name": "_message",
          "type": "string"
        }
      ],
      "name": "wave",
      "outputs": [],
      "stateMutability": "nonpayable",
      "type": "function"
    }
  ],
  "bytecode": "0x60806040526200004f6040518060400160405280601e81526020017f48656c6c6f202c20576f726c642028446563656e7472616c69736564292000008152506200007760201b620007ac1760201c565b606444426200005f9190620001c4565b6200006b919062000261565b60018190555062000308565b62000117816040516024016200008e919062000184565b6040516020818303038152906040527f41304fac000000000000000000000000000000000000000000000000000000007bffffffffffffffffffffffffffffffffffffffffffffffffffffffff19166020820180517bffffffffffffffffffffffffffffffffffffffffffffffffffffffff83818316178352505050506200011a60201b60201c565b50565b60008151905060006a636f6e736f6c652e6c6f679050602083016000808483855afa5050505050565b60006200015082620001a8565b6200015c8185620001b3565b93506200016e8185602086016200022b565b6200017981620002f7565b840191505092915050565b60006020820190508181036000830152620001a0818462000143565b905092915050565b600081519050919050565b600082825260208201905092915050565b6000620001d18262000221565b9150620001de8362000221565b9250827fffffffffffffffffffffffffffffffffffffffffffffffffffffffffffffffff0382111562000216576200021562000299565b5b828201905092915050565b6000819050919050565b60005b838110156200024b5780820151818401526020810190506200022e565b838111156200025b576000848401525b50505050565b60006200026e8262000221565b91506200027b8362000221565b9250826200028e576200028d620002c8565b5b828206905092915050565b7f4e487b7100000000000000000000000000000000000000000000000000000000600052601160045260246000fd5b7f4e487b7100000000000000000000000000000000000000000000000000000000600052601260045260246000fd5b6000601f19601f8301169050919050565b61136a80620003186000396000f3fe608060405234801561001057600080fd5b50600436106100575760003560e01c8063196bb79b1461005c578063449d46c01461007a5780639a2cdc0814610096578063a42a4663146100b4578063bd43a908146100e4575b600080fd5b610064610102565b6040516100719190610fd3565b60405180910390f35b610094600480360381019061008f9190610b8e565b6101ab565b005b61009e6105f8565b6040516100ab9190610fd3565b60405180910390f35b6100ce60048036038101906100c99190610b65565b610643565b6040516100db9190610fd3565b60405180910390f35b6100ec61065b565b6040516100f99190610e91565b60405180910390f35b600061016660405180606001604052806029815260200161130c6029913933600460003373ffffffffffffffffffffffffffffffffffffffff1673ffffffffffffffffffffffffffffffffffffffff16815260200190815260200160002054610845565b600460003373ffffffffffffffffffffffffffffffffffffffff1673ffffffffffffffffffffffffffffffffffffffff16815260200190815260200160002054905090565b60016000546101ba91906110f0565b6000819055506001600460003373ffffffffffffffffffffffffffffffffffffffff1673ffffffffffffffffffffffffffffffffffffffff168152602001908152602001600020600082825461021091906110f0565b925050819055506102966040518060400160405280601581526020017f2573206861732077617665642025642074696d6573000000000000000000000081525033600460003373ffffffffffffffffffffffffffffffffffffffff1673ffffffffffffffffffffffffffffffffffffffff16815260200190815260200160002054610845565b600360405180606001604052803373ffffffffffffffffffffffffffffffffffffffff16815260200183815260200142815250908060018154018082558091505060019003906000526020600020906003020160009091909190915060008201518160000160006101000a81548173ffffffffffffffffffffffffffffffffffffffff021916908373ffffffffffffffffffffffffffffffffffffffff1602179055506020820151816001019080519060200190610355929190610a45565b5060408201518160020155505042610384600260003373ffffffffffffffffffffffffffffffffffffffff1673ffffffffffffffffffffffffffffffffffffffff168152602001908152602001600020546103b091906110f0565b106103f0576040517f08c379a00000000000000000000000000000000000000000000000000000000081526004016103e790610fb3565b60405180910390fd5b42600260003373ffffffffffffffffffffffffffffffffffffffff1673ffffffffffffffffffffffffffffffffffffffff168152602001908152602001600020819055506064600154424461044591906110f0565b61044f91906110f0565b61045991906111f6565b6001819055506032600154116105a5576104a86040518060400160405280600781526020017f257320776f6e2100000000000000000000000000000000000000000000000000815250336108e4565b6000655af3107a40009050478111156104f6576040517f08c379a00000000000000000000000000000000000000000000000000000000081526004016104ed90610f73565b60405180910390fd5b60003373ffffffffffffffffffffffffffffffffffffffff168260405161051c90610e7c565b60006040518083038185875af1925050503d8060008114610559576040519150601f19603f3d011682016040523d82523d6000602084013e61055e565b606091505b50509050806105a2576040517f08c379a000000000000000000000000000000000000000000000000000000000815260040161059990610f93565b60405180910390fd5b50505b3373ffffffffffffffffffffffffffffffffffffffff167f5f7e16dc676677766a70e9c5628aa6c54ddb8b6e5188e2ae1e1f17f1ffbea71642836040516105ed929190610fee565b60405180910390a250565b600061063b6040518060400160405280601581526020017f4920676f7420256420746f74616c207761766573210000000000000000000000815250600054610980565b600054905090565b60026020528060005260406000206000915090505481565b60606003805480602002602001604051908101604052809291908181526020016000905b828210156107a357838290600052602060002090600302016040518060600160405290816000820160009054906101000a900473ffffffffffffffffffffffffffffffffffffffff1673ffffffffffffffffffffffffffffffffffffffff1673ffffffffffffffffffffffffffffffffffffffff168152602001600182018054610708906111c4565b80601f0160208091040260200160405190810160405280929190818152602001828054610734906111c4565b80156107815780601f1061075657610100808354040283529160200191610781565b820191906000526020600020905b81548152906001019060200180831161076457829003601f168201915b505050505081526020016002820154815250508152602001906001019061067f565b50505050905090565b610842816040516024016107c09190610eb3565b6040516020818303038152906040527f41304fac000000000000000000000000000000000000000000000000000000007bffffffffffffffffffffffffffffffffffffffffffffffffffffffff19166020820180517bffffffffffffffffffffffffffffffffffffffffffffffffffffffff8381831617835250505050610a1c565b50565b6108df83838360405160240161085d93929190610f05565b6040516020818303038152906040527f07c81217000000000000000000000000000000000000000000000000000000007bffffffffffffffffffffffffffffffffffffffffffffffffffffffff19166020820180517bffffffffffffffffffffffffffffffffffffffffffffffffffffffff8381831617835250505050610a1c565b505050565b61097c82826040516024016108fa929190610ed5565b6040516020818303038152906040527f319af333000000000000000000000000000000000000000000000000000000007bffffffffffffffffffffffffffffffffffffffffffffffffffffffff19166020820180517bffffffffffffffffffffffffffffffffffffffffffffffffffffffff8381831617835250505050610a1c565b5050565b610a188282604051602401610996929190610f43565b6040516020818303038152906040527f9710a9d0000000000000000000000000000000000000000000000000000000007bffffffffffffffffffffffffffffffffffffffffffffffffffffffff19166020820180517bffffffffffffffffffffffffffffffffffffffffffffffffffffffff8381831617835250505050610a1c565b5050565b60008151905060006a636f6e736f6c652e6c6f679050602083016000808483855afa5050505050565b828054610a51906111c4565b90600052602060002090601f016020900481019282610a735760008555610aba565b82601f10610a8c57805160ff1916838001178555610aba565b82800160010185558215610aba579182015b82811115610ab9578251825591602001919060010190610a9e565b5b509050610ac79190610acb565b5090565b5b80821115610ae4576000816000905550600101610acc565b5090565b6000610afb610af68461104f565b61101e565b905082815260208101848484011115610b1357600080fd5b610b1e848285611182565b509392505050565b600081359050610b35816112f4565b92915050565b600082601f830112610b4c57600080fd5b8135610b5c848260208601610ae8565b91505092915050565b600060208284031215610b7757600080fd5b6000610b8584828501610b26565b91505092915050565b600060208284031215610ba057600080fd5b600082013567ffffffffffffffff811115610bba57600080fd5b610bc684828501610b3b565b91505092915050565b6000610bdb8383610e0e565b905092915050565b610bec81611146565b82525050565b610bfb81611146565b82525050565b6000610c0c8261108f565b610c1681856110b2565b935083602082028501610c288561107f565b8060005b85811015610c645784840389528151610c458582610bcf565b9450610c50836110a5565b925060208a01995050600181019050610c2c565b50829750879550505050505092915050565b6000610c818261109a565b610c8b81856110ce565b9350610c9b818560208601611191565b610ca4816112e3565b840191505092915050565b6000610cba8261109a565b610cc481856110df565b9350610cd4818560208601611191565b610cdd816112e3565b840191505092915050565b6000610cf56034836110df565b91507f547279696e6720746f207769746864726177206d6f7265206d6f6e657920746860008301527f616e2074686520636f6e7472616374206861732e0000000000000000000000006020830152604082019050919050565b6000610d5b6027836110df565b91507f4661696c656420746f207769746864726177206d6f6e65792066726f6d20636f60008301527f6e74726163742e000000000000000000000000000000000000000000000000006020830152604082019050919050565b6000610dc16000836110c3565b9150600082019050919050565b6000610ddb6008836110df565b91507f576169742031356d0000000000000000000000000000000000000000000000006000830152602082019050919050565b6000606083016000830151610e266000860182610be3565b5060208301518482036020860152610e3e8282610c76565b9150506040830151610e536040860182610e5e565b508091505092915050565b610e6781611178565b82525050565b610e7681611178565b82525050565b6000610e8782610db4565b9150819050919050565b60006020820190508181036000830152610eab8184610c01565b905092915050565b60006020820190508181036000830152610ecd8184610caf565b905092915050565b60006040820190508181036000830152610eef8185610caf565b9050610efe6020830184610bf2565b9392505050565b60006060820190508181036000830152610f1f8186610caf565b9050610f2e6020830185610bf2565b610f3b6040830184610e6d565b949350505050565b60006040820190508181036000830152610f5d8185610caf565b9050610f6c6020830184610e6d565b9392505050565b60006020820190508181036000830152610f8c81610ce8565b9050919050565b60006020820190508181036000830152610fac81610d4e565b9050919050565b60006020820190508181036000830152610fcc81610dce565b9050919050565b6000602082019050610fe86000830184610e6d565b92915050565b60006040820190506110036000830185610e6d565b81810360208301526110158184610caf565b90509392505050565b6000604051905081810181811067ffffffffffffffff82111715611045576110446112b4565b5b8060405250919050565b600067ffffffffffffffff82111561106a576110696112b4565b5b601f19601f8301169050602081019050919050565b6000819050602082019050919050565b600081519050919050565b600081519050919050565b6000602082019050919050565b600082825260208201905092915050565b600081905092915050565b600082825260208201905092915050565b600082825260208201905092915050565b60006110fb82611178565b915061110683611178565b9250827fffffffffffffffffffffffffffffffffffffffffffffffffffffffffffffffff0382111561113b5761113a611227565b5b828201905092915050565b600061115182611158565b9050919050565b600073ffffffffffffffffffffffffffffffffffffffff82169050919050565b6000819050919050565b82818337600083830152505050565b60005b838110156111af578082015181840152602081019050611194565b838111156111be576000848401525b50505050565b600060028204905060018216806111dc57607f821691505b602082108114156111f0576111ef611285565b5b50919050565b600061120182611178565b915061120c83611178565b92508261121c5761121b611256565b5b828206905092915050565b7f4e487b7100000000000000000000000000000000000000000000000000000000600052601160045260246000fd5b7f4e487b7100000000000000000000000000000000000000000000000000000000600052601260045260246000fd5b7f4e487b7100000000000000000000000000000000000000000000000000000000600052602260045260246000fd5b7f4e487b7100000000000000000000000000000000000000000000000000000000600052604160045260246000fd5b6000601f19601f8301169050919050565b6112fd81611146565b811461130857600080fd5b5056fe486579202573202c205468616e6b7320666f722074686520256420776176657320696e20746f74616ca264697066735822122055cfa37692dd4f7beee8fedbfca23bee65ad4215fee700121e37d4dc42ae588564736f6c63430008000033",
  "linkReferences": {},
  "deployedLinkReferences": {}
}