{
  "_format": "hh-sol-artifact-1",
  "contractName": "Waveportal",
  "sourceName": "contracts/Waveportal.sol",
  "abi": [
    {
      "inputs": [],
      "stateMutability": "nonpayable",
      "type": "constructor"
    },
    {
      "inputs": [],
      "name": "getTotalWaves",
      "outputs": [
        {
          "internalType": "uint256",
          "name": "",
          "type": "uint256"
        }
      ],
      "stateMutability": "view",
      "type": "function"
    },
    {
      "inputs": [],
      "name": "getWavesBySender",
      "outputs": [
        {
          "internalType": "uint256",
          "name": "",
          "type": "uint256"
        }
      ],
      "stateMutability": "view",
      "type": "function"
    },
    {
      "inputs": [],
      "name": "wave",
      "outputs": [],
      "stateMutability": "nonpayable",
      "type": "function"
    }
  ],
  "bytecode": "0x608060405234801561001057600080fd5b506100596040518060400160405280601e81526020017f48656c6c6f202c20576f726c642028446563656e7472616c697365642920000081525061005e60201b61026c1760201c565b6101e1565b6100fa81604051602401610072919061015f565b6040516020818303038152906040527f41304fac000000000000000000000000000000000000000000000000000000007bffffffffffffffffffffffffffffffffffffffffffffffffffffffff19166020820180517bffffffffffffffffffffffffffffffffffffffffffffffffffffffff83818316178352505050506100fd60201b60201c565b50565b60008151905060006a636f6e736f6c652e6c6f679050602083016000808483855afa5050505050565b600061013182610181565b61013b818561018c565b935061014b81856020860161019d565b610154816101d0565b840191505092915050565b600060208201905081810360008301526101798184610126565b905092915050565b600081519050919050565b600082825260208201905092915050565b60005b838110156101bb5780820151818401526020810190506101a0565b838111156101ca576000848401525b50505050565b6000601f19601f8301169050919050565b6106eb806101f06000396000f3fe608060405234801561001057600080fd5b50600436106100415760003560e01c8063196bb79b146100465780636fe15b44146100645780639a2cdc081461006e575b600080fd5b61004e61008c565b60405161005b9190610550565b60405180910390f35b61006c610135565b005b610076610221565b6040516100839190610550565b60405180910390f35b60006100f060405180606001604052806029815260200161068d6029913933600160003373ffffffffffffffffffffffffffffffffffffffff1673ffffffffffffffffffffffffffffffffffffffff16815260200190815260200160002054610305565b600160003373ffffffffffffffffffffffffffffffffffffffff1673ffffffffffffffffffffffffffffffffffffffff16815260200190815260200160002054905090565b60016000546101449190610587565b60008190555060018060003373ffffffffffffffffffffffffffffffffffffffff1673ffffffffffffffffffffffffffffffffffffffff16815260200190815260200160002060008282546101999190610587565b9250508190555061021f6040518060400160405280601581526020017f2573206861732077617665642025642074696d6573000000000000000000000081525033600160003373ffffffffffffffffffffffffffffffffffffffff1673ffffffffffffffffffffffffffffffffffffffff16815260200190815260200160002054610305565b565b60006102646040518060400160405280601581526020017f4920676f7420256420746f74616c2077617665732100000000000000000000008152506000546103a4565b600054905090565b6103028160405160240161028091906104c0565b6040516020818303038152906040527f41304fac000000000000000000000000000000000000000000000000000000007bffffffffffffffffffffffffffffffffffffffffffffffffffffffff19166020820180517bffffffffffffffffffffffffffffffffffffffffffffffffffffffff8381831617835250505050610440565b50565b61039f83838360405160240161031d939291906104e2565b6040516020818303038152906040527f07c81217000000000000000000000000000000000000000000000000000000007bffffffffffffffffffffffffffffffffffffffffffffffffffffffff19166020820180517bffffffffffffffffffffffffffffffffffffffffffffffffffffffff8381831617835250505050610440565b505050565b61043c82826040516024016103ba929190610520565b6040516020818303038152906040527f9710a9d0000000000000000000000000000000000000000000000000000000007bffffffffffffffffffffffffffffffffffffffffffffffffffffffff19166020820180517bffffffffffffffffffffffffffffffffffffffffffffffffffffffff8381831617835250505050610440565b5050565b60008151905060006a636f6e736f6c652e6c6f679050602083016000808483855afa5050505050565b610472816105dd565b82525050565b60006104838261056b565b61048d8185610576565b935061049d818560208601610619565b6104a68161067b565b840191505092915050565b6104ba8161060f565b82525050565b600060208201905081810360008301526104da8184610478565b905092915050565b600060608201905081810360008301526104fc8186610478565b905061050b6020830185610469565b61051860408301846104b1565b949350505050565b6000604082019050818103600083015261053a8185610478565b905061054960208301846104b1565b9392505050565b600060208201905061056560008301846104b1565b92915050565b600081519050919050565b600082825260208201905092915050565b60006105928261060f565b915061059d8361060f565b9250827fffffffffffffffffffffffffffffffffffffffffffffffffffffffffffffffff038211156105d2576105d161064c565b5b828201905092915050565b60006105e8826105ef565b9050919050565b600073ffffffffffffffffffffffffffffffffffffffff82169050919050565b6000819050919050565b60005b8381101561063757808201518184015260208101905061061c565b83811115610646576000848401525b50505050565b7f4e487b7100000000000000000000000000000000000000000000000000000000600052601160045260246000fd5b6000601f19601f830116905091905056fe486579202573202c205468616e6b7320666f722074686520256420776176657320696e20746f74616ca2646970667358221220e512c39f5f07f2de05b52dff791a13369c2840655cfc93ba4339c559e0d1651764736f6c63430008000033",
  "linkReferences": {},
  "deployedLinkReferences": {}
}