{
  "_format": "hh-sol-artifact-1",
  "contractName": "Waveportal",
  "sourceName": "contracts/Waveportal.sol",
  "abi": [
    {
      "inputs": [],
      "stateMutability": "nonpayable",
      "type": "constructor"
    },
    {
      "anonymous": false,
      "inputs": [
        {
          "indexed": true,
          "internalType": "address",
          "name": "from",
          "type": "address"
        },
        {
          "indexed": false,
          "internalType": "uint256",
          "name": "timestamp",
          "type": "uint256"
        },
        {
          "indexed": false,
          "internalType": "string",
          "name": "message",
          "type": "string"
        }
      ],
      "name": "NewWave",
      "type": "event"
    },
    {
      "inputs": [],
      "name": "getAllWaves",
      "outputs": [
        {
          "components": [
            {
              "internalType": "address",
              "name": "waver",
              "type": "address"
            },
            {
              "internalType": "string",
              "name": "message",
              "type": "string"
            },
            {
              "internalType": "uint256",
              "name": "timestamp",
              "type": "uint256"
            }
          ],
          "internalType": "struct Waveportal.Wave[]",
          "name": "",
          "type": "tuple[]"
        }
      ],
      "stateMutability": "view",
      "type": "function"
    },
    {
      "inputs": [],
      "name": "getTotalWaves",
      "outputs": [
        {
          "internalType": "uint256",
          "name": "",
          "type": "uint256"
        }
      ],
      "stateMutability": "view",
      "type": "function"
    },
    {
      "inputs": [],
      "name": "getWavesBySender",
      "outputs": [
        {
          "internalType": "uint256",
          "name": "",
          "type": "uint256"
        }
      ],
      "stateMutability": "view",
      "type": "function"
    },
    {
      "inputs": [
        {
          "internalType": "string",
          "name": "_message",
          "type": "string"
        }
      ],
      "name": "wave",
      "outputs": [],
      "stateMutability": "nonpayable",
      "type": "function"
    }
  ],
  "bytecode": "0x60806040523480156200001157600080fd5b506200005d6040518060400160405280601e81526020017f48656c6c6f202c20576f726c642028446563656e7472616c69736564292000008152506200006360201b620005161760201c565b620001f7565b62000103816040516024016200007a919062000170565b6040516020818303038152906040527f41304fac000000000000000000000000000000000000000000000000000000007bffffffffffffffffffffffffffffffffffffffffffffffffffffffff19166020820180517bffffffffffffffffffffffffffffffffffffffffffffffffffffffff83818316178352505050506200010660201b60201c565b50565b60008151905060006a636f6e736f6c652e6c6f679050602083016000808483855afa5050505050565b60006200013c8262000194565b6200014881856200019f565b93506200015a818560208601620001b0565b6200016581620001e6565b840191505092915050565b600060208201905081810360008301526200018c81846200012f565b905092915050565b600081519050919050565b600082825260208201905092915050565b60005b83811015620001d0578082015181840152602081019050620001b3565b83811115620001e0576000848401525b50505050565b6000601f19601f8301169050919050565b610dad80620002076000396000f3fe608060405234801561001057600080fd5b506004361061004c5760003560e01c8063196bb79b14610051578063449d46c01461006f5780639a2cdc081461008b578063bd43a908146100a9575b600080fd5b6100596100c7565b6040516100669190610a98565b60405180910390f35b6100896004803603810190610084919061081e565b610170565b005b61009361037a565b6040516100a09190610a98565b60405180910390f35b6100b16103c5565b6040516100be91906109e6565b60405180910390f35b600061012b604051806060016040528060298152602001610d4f6029913933600260003373ffffffffffffffffffffffffffffffffffffffff1673ffffffffffffffffffffffffffffffffffffffff168152602001908152602001600020546105af565b600260003373ffffffffffffffffffffffffffffffffffffffff1673ffffffffffffffffffffffffffffffffffffffff16815260200190815260200160002054905090565b600160005461017f9190610baa565b6000819055506001600260003373ffffffffffffffffffffffffffffffffffffffff1673ffffffffffffffffffffffffffffffffffffffff16815260200190815260200160002060008282546101d59190610baa565b9250508190555061025b6040518060400160405280601581526020017f2573206861732077617665642025642074696d6573000000000000000000000081525033600260003373ffffffffffffffffffffffffffffffffffffffff1673ffffffffffffffffffffffffffffffffffffffff168152602001908152602001600020546105af565b600160405180606001604052803373ffffffffffffffffffffffffffffffffffffffff16815260200183815260200142815250908060018154018082558091505060019003906000526020600020906003020160009091909190915060008201518160000160006101000a81548173ffffffffffffffffffffffffffffffffffffffff021916908373ffffffffffffffffffffffffffffffffffffffff160217905550602082015181600101908051906020019061031a929190610713565b506040820151816002015550503373ffffffffffffffffffffffffffffffffffffffff167f5f7e16dc676677766a70e9c5628aa6c54ddb8b6e5188e2ae1e1f17f1ffbea716428360405161036f929190610ab3565b60405180910390a250565b60006103bd6040518060400160405280601581526020017f4920676f7420256420746f74616c20776176657321000000000000000000000081525060005461064e565b600054905090565b60606001805480602002602001604051908101604052809291908181526020016000905b8282101561050d57838290600052602060002090600302016040518060600160405290816000820160009054906101000a900473ffffffffffffffffffffffffffffffffffffffff1673ffffffffffffffffffffffffffffffffffffffff1673ffffffffffffffffffffffffffffffffffffffff16815260200160018201805461047290610c7e565b80601f016020809104026020016040519081016040528092919081815260200182805461049e90610c7e565b80156104eb5780601f106104c0576101008083540402835291602001916104eb565b820191906000526020600020905b8154815290600101906020018083116104ce57829003601f168201915b50505050508152602001600282015481525050815260200190600101906103e9565b50505050905090565b6105ac8160405160240161052a9190610a08565b6040516020818303038152906040527f41304fac000000000000000000000000000000000000000000000000000000007bffffffffffffffffffffffffffffffffffffffffffffffffffffffff19166020820180517bffffffffffffffffffffffffffffffffffffffffffffffffffffffff83818316178352505050506106ea565b50565b6106498383836040516024016105c793929190610a2a565b6040516020818303038152906040527f07c81217000000000000000000000000000000000000000000000000000000007bffffffffffffffffffffffffffffffffffffffffffffffffffffffff19166020820180517bffffffffffffffffffffffffffffffffffffffffffffffffffffffff83818316178352505050506106ea565b505050565b6106e68282604051602401610664929190610a68565b6040516020818303038152906040527f9710a9d0000000000000000000000000000000000000000000000000000000007bffffffffffffffffffffffffffffffffffffffffffffffffffffffff19166020820180517bffffffffffffffffffffffffffffffffffffffffffffffffffffffff83818316178352505050506106ea565b5050565b60008151905060006a636f6e736f6c652e6c6f679050602083016000808483855afa5050505050565b82805461071f90610c7e565b90600052602060002090601f0160209004810192826107415760008555610788565b82601f1061075a57805160ff1916838001178555610788565b82800160010185558215610788579182015b8281111561078757825182559160200191906001019061076c565b5b5090506107959190610799565b5090565b5b808211156107b257600081600090555060010161079a565b5090565b60006107c96107c484610b14565b610ae3565b9050828152602081018484840111156107e157600080fd5b6107ec848285610c3c565b509392505050565b600082601f83011261080557600080fd5b81356108158482602086016107b6565b91505092915050565b60006020828403121561083057600080fd5b600082013567ffffffffffffffff81111561084a57600080fd5b610856848285016107f4565b91505092915050565b600061086b8383610978565b905092915050565b61087c81610c00565b82525050565b61088b81610c00565b82525050565b600061089c82610b54565b6108a68185610b77565b9350836020820285016108b885610b44565b8060005b858110156108f457848403895281516108d5858261085f565b94506108e083610b6a565b925060208a019950506001810190506108bc565b50829750879550505050505092915050565b600061091182610b5f565b61091b8185610b88565b935061092b818560208601610c4b565b61093481610d3d565b840191505092915050565b600061094a82610b5f565b6109548185610b99565b9350610964818560208601610c4b565b61096d81610d3d565b840191505092915050565b60006060830160008301516109906000860182610873565b50602083015184820360208601526109a88282610906565b91505060408301516109bd60408601826109c8565b508091505092915050565b6109d181610c32565b82525050565b6109e081610c32565b82525050565b60006020820190508181036000830152610a008184610891565b905092915050565b60006020820190508181036000830152610a22818461093f565b905092915050565b60006060820190508181036000830152610a44818661093f565b9050610a536020830185610882565b610a6060408301846109d7565b949350505050565b60006040820190508181036000830152610a82818561093f565b9050610a9160208301846109d7565b9392505050565b6000602082019050610aad60008301846109d7565b92915050565b6000604082019050610ac860008301856109d7565b8181036020830152610ada818461093f565b90509392505050565b6000604051905081810181811067ffffffffffffffff82111715610b0a57610b09610d0e565b5b8060405250919050565b600067ffffffffffffffff821115610b2f57610b2e610d0e565b5b601f19601f8301169050602081019050919050565b6000819050602082019050919050565b600081519050919050565b600081519050919050565b6000602082019050919050565b600082825260208201905092915050565b600082825260208201905092915050565b600082825260208201905092915050565b6000610bb582610c32565b9150610bc083610c32565b9250827fffffffffffffffffffffffffffffffffffffffffffffffffffffffffffffffff03821115610bf557610bf4610cb0565b5b828201905092915050565b6000610c0b82610c12565b9050919050565b600073ffffffffffffffffffffffffffffffffffffffff82169050919050565b6000819050919050565b82818337600083830152505050565b60005b83811015610c69578082015181840152602081019050610c4e565b83811115610c78576000848401525b50505050565b60006002820490506001821680610c9657607f821691505b60208210811415610caa57610ca9610cdf565b5b50919050565b7f4e487b7100000000000000000000000000000000000000000000000000000000600052601160045260246000fd5b7f4e487b7100000000000000000000000000000000000000000000000000000000600052602260045260246000fd5b7f4e487b7100000000000000000000000000000000000000000000000000000000600052604160045260246000fd5b6000601f19601f830116905091905056fe486579202573202c205468616e6b7320666f722074686520256420776176657320696e20746f74616ca2646970667358221220f4c48aa96694af086c0093fecead56b51b7cd02522f55cf5a8b0433864d4b74064736f6c63430008000033",
  "linkReferences": {},
  "deployedLinkReferences": {}
}